{
  "contractName": "HashLotto",
  "abi": [
    {
      "constant": true,
      "inputs": [
        {
          "name": "",
          "type": "address"
        }
      ],
      "name": "tickets",
      "outputs": [
        {
          "name": "myGuess",
          "type": "bytes32"
        },
        {
          "name": "atBlockNumber",
          "type": "uint256"
        }
      ],
      "payable": false,
      "stateMutability": "view",
      "type": "function"
    },
    {
      "inputs": [],
      "payable": true,
      "stateMutability": "payable",
      "type": "constructor"
    },
    {
      "payable": false,
      "stateMutability": "nonpayable",
      "type": "fallback"
    },
    {
      "anonymous": false,
      "inputs": [
        {
          "indexed": true,
          "name": "who",
          "type": "address"
        },
        {
          "indexed": false,
          "name": "braggingRights",
          "type": "bytes32"
        }
      ],
      "name": "LogToldYouSo",
      "type": "event"
    },
    {
      "constant": false,
      "inputs": [
        {
          "name": "myGuess",
          "type": "bytes32"
        },
        {
          "name": "ahead",
          "type": "uint32"
        }
      ],
      "name": "markMyWord",
      "outputs": [],
      "payable": true,
      "stateMutability": "payable",
      "type": "function"
    },
    {
      "constant": false,
      "inputs": [
        {
          "name": "braggingRights",
          "type": "bytes32"
        }
      ],
      "name": "toldYouSo",
      "outputs": [],
      "payable": false,
      "stateMutability": "nonpayable",
      "type": "function"
    }
  ],
  "bytecode": "0x60806040526103ba806100136000396000f3fe608060405260043610610057576000357c0100000000000000000000000000000000000000000000000000000000900463ffffffff168063126c13c81461006657806340848af5146100a15780636dcbf2a3146100df575b34801561006357600080fd5b50005b34801561007257600080fd5b5061009f6004803603602081101561008957600080fd5b810190808035906020019092919050505061014b565b005b6100dd600480360360408110156100b757600080fd5b8101908080359060200190929190803563ffffffff1690602001909291905050506102c8565b005b3480156100eb57600080fd5b5061012e6004803603602081101561010257600080fd5b81019080803573ffffffffffffffffffffffffffffffffffffffff16906020019092919050505061036a565b604051808381526020018281526020019250505060405180910390f35b60008060003373ffffffffffffffffffffffffffffffffffffffff1673ffffffffffffffffffffffffffffffffffffffff16815260200190815260200160002090506000816001015490508060001015156101a557600080fd5b43811015156101b357600080fd5b804082600001541415156101c657600080fd5b3373ffffffffffffffffffffffffffffffffffffffff167fa4f2ad5b0cb6279c431b4db301c7f9e9152c255ef5a8ac7250393b95db9be36e846040518082815260200191505060405180910390a26000803373ffffffffffffffffffffffffffffffffffffffff1673ffffffffffffffffffffffffffffffffffffffff168152602001908152602001600020600080820160009055600182016000905550503373ffffffffffffffffffffffffffffffffffffffff166108fc3073ffffffffffffffffffffffffffffffffffffffff16319081150290604051600060405180830381858888f193505050501580156102c2573d6000803e3d6000fd5b50505050565b3467016345785d8a0000111515156102df57600080fd5b8063ffffffff1660001015156102f457600080fd5b60408051908101604052808381526020018263ffffffff1643018152506000803373ffffffffffffffffffffffffffffffffffffffff1673ffffffffffffffffffffffffffffffffffffffff16815260200190815260200160002060008201518160000155602082015181600101559050505050565b6000602052806000526040600020600091509050806000015490806001015490508256fea165627a7a7230582015b9a45ccd03fabe8edd8c4d68509d20b26e306e2ddd103b044edba9035555070029",
  "source": "pragma solidity 0.5.0;\n\ncontract HashLotto {\n\n    struct Ticket {\n        bytes32 myGuess;\n        uint atBlockNumber;\n    }\n    mapping (address => Ticket) public tickets;\n\n    event LogToldYouSo(address indexed who, bytes32 braggingRights);\n\n    constructor() public payable {\n    }\n\n    function markMyWord(bytes32 myGuess, uint32 ahead) public payable {\n        require(0.1 ether <= msg.value);\n        require(0 < ahead);\n        tickets[msg.sender] = Ticket({\n            myGuess: myGuess,\n            atBlockNumber: block.number + ahead\n        });\n    }\n\n    function toldYouSo(bytes32 braggingRights) public {\n        Ticket storage myTicket = tickets[msg.sender];\n        uint atBlockNumber = myTicket.atBlockNumber;\n        require(0 < atBlockNumber);\n        require(atBlockNumber < block.number);\n        require(myTicket.myGuess == blockhash(atBlockNumber));\n        emit LogToldYouSo(msg.sender, braggingRights);\n        delete tickets[msg.sender];\n        msg.sender.transfer(address(this).balance);\n    }\n\n    function() external {\n    }\n}\n",
  "sourcePath": "/home/vagrant/DAPPS/b9internal/hash-lotto/contracts/HashLotto.sol",
  "compiler": {
    "name": "solc",
    "version": "0.5.0+commit.1d4f565a.Emscripten.clang"
  },
  "schemaVersion": "3.0.3",
  "updatedAt": "2019-03-28T15:43:03.456Z",
  "devdoc": {
    "methods": {}
  },
  "userdoc": {
    "methods": {}
  }
}