{
  "contractName": "HashLotto",
  "abi": [
    {
      "constant": true,
      "inputs": [
        {
          "name": "",
          "type": "address"
        }
      ],
      "name": "tickets",
      "outputs": [
        {
          "name": "myGuess",
          "type": "bytes32"
        },
        {
          "name": "atBlockNumber",
          "type": "uint256"
        }
      ],
      "payable": false,
      "stateMutability": "view",
      "type": "function"
    },
    {
      "inputs": [],
      "payable": true,
      "stateMutability": "payable",
      "type": "constructor"
    },
    {
      "payable": false,
      "stateMutability": "nonpayable",
      "type": "fallback"
    },
    {
      "anonymous": false,
      "inputs": [
        {
          "indexed": true,
          "name": "who",
          "type": "address"
        },
        {
          "indexed": false,
          "name": "braggingRights",
          "type": "bytes32"
        }
      ],
      "name": "LogToldYouSo",
      "type": "event"
    },
    {
      "constant": false,
      "inputs": [
        {
          "name": "myGuess",
          "type": "bytes32"
        },
        {
          "name": "ahead",
          "type": "uint32"
        }
      ],
      "name": "markMyWord",
      "outputs": [],
      "payable": true,
      "stateMutability": "payable",
      "type": "function"
    },
    {
      "constant": false,
      "inputs": [
        {
          "name": "braggingRights",
          "type": "bytes32"
        }
      ],
      "name": "toldYouSo",
      "outputs": [],
      "payable": false,
      "stateMutability": "nonpayable",
      "type": "function"
    }
  ],
  "bytecode": "0x60806040526103b9806100136000396000f300608060405260043610610057576000357c0100000000000000000000000000000000000000000000000000000000900463ffffffff168063126c13c81461006657806340848af5146100975780636dcbf2a3146100cb575b34801561006357600080fd5b50005b34801561007257600080fd5b506100956004803603810190808035600019169060200190929190505050610131565b005b6100c96004803603810190808035600019169060200190929190803563ffffffff1690602001909291905050506102bd565b005b3480156100d757600080fd5b5061010c600480360381019080803573ffffffffffffffffffffffffffffffffffffffff169060200190929190505050610369565b6040518083600019166000191681526020018281526020019250505060405180910390f35b6000806000803373ffffffffffffffffffffffffffffffffffffffff1673ffffffffffffffffffffffffffffffffffffffff16815260200190815260200160002091508160010154905080600010151561018a57600080fd5b438110151561019857600080fd5b8040600019168260000154600019161415156101b357600080fd5b3373ffffffffffffffffffffffffffffffffffffffff167fa4f2ad5b0cb6279c431b4db301c7f9e9152c255ef5a8ac7250393b95db9be36e8460405180826000191660001916815260200191505060405180910390a26000803373ffffffffffffffffffffffffffffffffffffffff1673ffffffffffffffffffffffffffffffffffffffff168152602001908152602001600020600080820160009055600182016000905550503373ffffffffffffffffffffffffffffffffffffffff166108fc3073ffffffffffffffffffffffffffffffffffffffff16319081150290604051600060405180830381858888f193505050501580156102b7573d6000803e3d6000fd5b50505050565b3467016345785d8a0000111515156102d457600080fd5b8063ffffffff1660001015156102e957600080fd5b6040805190810160405280836000191681526020018263ffffffff1643018152506000803373ffffffffffffffffffffffffffffffffffffffff1673ffffffffffffffffffffffffffffffffffffffff16815260200190815260200160002060008201518160000190600019169055602082015181600101559050505050565b600060205280600052604060002060009150905080600001549080600101549050825600a165627a7a72305820b180742a83db52c4e8c08453dd9aea154e5b31609461af38d5a4069255549b7f0029",
  "source": "pragma solidity 0.4.24;\n\ncontract HashLotto {\n\n    struct Ticket {\n        bytes32 myGuess;\n        uint atBlockNumber;\n    }\n    mapping (address => Ticket) public tickets;\n\n    event LogToldYouSo(address indexed who, bytes32 braggingRights);\n\n    constructor() public payable {\n    }\n\n    function markMyWord(bytes32 myGuess, uint32 ahead) public payable {\n        require(0.1 ether <= msg.value);\n        require(0 < ahead);\n        tickets[msg.sender] = Ticket({\n            myGuess: myGuess,\n            atBlockNumber: block.number + ahead\n        });\n    }\n\n    function toldYouSo(bytes32 braggingRights) public {\n        Ticket storage myTicket = tickets[msg.sender];\n        uint atBlockNumber = myTicket.atBlockNumber;\n        require(0 < atBlockNumber);\n        require(atBlockNumber < block.number);\n        require(myTicket.myGuess == blockhash(atBlockNumber));\n        emit LogToldYouSo(msg.sender, braggingRights);\n        delete tickets[msg.sender];\n        msg.sender.transfer(address(this).balance);\n    }\n\n    function() public {\n    }\n}\n",
  "sourcePath": "/home/vagrant/DAPPS/b9internal/hash-lotto/contracts/HashLotto.sol",
  "compiler": {
    "name": "solc",
    "version": "0.4.24+commit.e67f0147.Emscripten.clang"
  },
  "schemaVersion": "2.0.1",
  "updatedAt": "2018-08-07T15:10:58.786Z"
}